{
  "abi": [
    {
      "inputs": [],
      "stateMutability": "nonpayable",
      "type": "constructor"
    },
    {
      "anonymous": false,
      "inputs": [
        {
          "indexed": true,
          "internalType": "address",
          "name": "previousOwner",
          "type": "address"
        },
        {
          "indexed": true,
          "internalType": "address",
          "name": "newOwner",
          "type": "address"
        }
      ],
      "name": "OwnershipTransferred",
      "type": "event"
    },
    {
      "anonymous": false,
      "inputs": [
        {
          "indexed": false,
          "internalType": "uint256",
          "name": "newSupply",
          "type": "uint256"
        }
      ],
      "name": "SupplyIncrease",
      "type": "event"
    },
    {
      "anonymous": false,
      "inputs": [
        {
          "indexed": false,
          "internalType": "address",
          "name": "from",
          "type": "address"
        },
        {
          "indexed": false,
          "internalType": "address",
          "name": "to",
          "type": "address"
        },
        {
          "indexed": false,
          "internalType": "uint256",
          "name": "amount",
          "type": "uint256"
        }
      ],
      "name": "TokenTransfer",
      "type": "event"
    },
    {
      "inputs": [],
      "name": "_owner",
      "outputs": [
        {
          "internalType": "address",
          "name": "",
          "type": "address"
        }
      ],
      "stateMutability": "view",
      "type": "function"
    },
    {
      "inputs": [
        {
          "internalType": "address",
          "name": "",
          "type": "address"
        }
      ],
      "name": "balances",
      "outputs": [
        {
          "internalType": "uint256",
          "name": "",
          "type": "uint256"
        }
      ],
      "stateMutability": "view",
      "type": "function"
    },
    {
      "inputs": [
        {
          "internalType": "address",
          "name": "user",
          "type": "address"
        }
      ],
      "name": "getPaymentsForUser",
      "outputs": [
        {
          "components": [
            {
              "internalType": "address",
              "name": "recipient",
              "type": "address"
            },
            {
              "internalType": "uint256",
              "name": "amount",
              "type": "uint256"
            }
          ],
          "internalType": "struct VolcanoCoin.Payment[]",
          "name": "",
          "type": "tuple[]"
        }
      ],
      "stateMutability": "view",
      "type": "function"
    },
    {
      "inputs": [],
      "name": "getTotalSupply",
      "outputs": [
        {
          "internalType": "uint256",
          "name": "",
          "type": "uint256"
        }
      ],
      "stateMutability": "view",
      "type": "function"
    },
    {
      "inputs": [],
      "name": "increaseTotalSupply",
      "outputs": [],
      "stateMutability": "nonpayable",
      "type": "function"
    },
    {
      "inputs": [],
      "name": "owner",
      "outputs": [
        {
          "internalType": "address",
          "name": "",
          "type": "address"
        }
      ],
      "stateMutability": "view",
      "type": "function"
    },
    {
      "inputs": [],
      "name": "renounceOwnership",
      "outputs": [],
      "stateMutability": "nonpayable",
      "type": "function"
    },
    {
      "inputs": [],
      "name": "totalSupply",
      "outputs": [
        {
          "internalType": "uint256",
          "name": "",
          "type": "uint256"
        }
      ],
      "stateMutability": "view",
      "type": "function"
    },
    {
      "inputs": [
        {
          "internalType": "address",
          "name": "to",
          "type": "address"
        },
        {
          "internalType": "uint256",
          "name": "amount",
          "type": "uint256"
        }
      ],
      "name": "transfer",
      "outputs": [
        {
          "internalType": "bool",
          "name": "",
          "type": "bool"
        }
      ],
      "stateMutability": "nonpayable",
      "type": "function"
    },
    {
      "inputs": [
        {
          "internalType": "address",
          "name": "newOwner",
          "type": "address"
        }
      ],
      "name": "transferOwnership",
      "outputs": [],
      "stateMutability": "nonpayable",
      "type": "function"
    }
  ],
  "bytecode": {
    "object": "0x608060405261271060015534801561001657600080fd5b5061002033610058565b600154600260006100396000546001600160a01b031690565b6001600160a01b031681526020810191909152604001600020556100a8565b600080546001600160a01b038381166001600160a01b0319831681178455604051919092169283917f8be0079c531659141344cd1fd0a4f28419497f9722a3daafe3b4186f6b6457e09190a35050565b61062f806100b76000396000f3fe608060405234801561001057600080fd5b506004361061009e5760003560e01c8063b2bdfa7b11610066578063b2bdfa7b14610131578063c4e41b2214610144578063cfc94e541461014c578063de0f2be11461016c578063f2fde38b1461017457600080fd5b806318160ddd146100a357806327e235e3146100bf578063715018a6146100df5780638da5cb5b146100e9578063a9059cbb1461010e575b600080fd5b6100ac60015481565b6040519081526020015b60405180910390f35b6100ac6100cd366004610519565b60026020526000908152604090205481565b6100e7610187565b005b6000546001600160a01b03165b6040516001600160a01b0390911681526020016100b6565b61012161011c36600461053b565b61019b565b60405190151581526020016100b6565b6004546100f6906001600160a01b031681565b6001546100ac565b61015f61015a366004610519565b6102a3565b6040516100b69190610565565b6100e761032e565b6100e7610182366004610519565b6103d5565b61018f610453565b61019960006104ad565b565b336000908152600260205260408120805483919083906101bc9084906105d3565b90915550506001600160a01b038316600090815260026020526040812080548492906101e99084906105e6565b909155505033600090815260036020908152604080832081518083019092526001600160a01b038088168352828401878152825460018082018555938752949095209251600290940290920180546001600160a01b031916939092169290921781559151910155604080513381526001600160a01b03851660208201529081018390527fd0ed88a3f042c6bbb1e3ea406079b5f2b4b198afccaa535d837f4c63abbc4de69060600160405180910390a15060015b92915050565b6001600160a01b0381166000908152600360209081526040808320805482518185028101850190935280835260609492939192909184015b82821015610323576000848152602090819020604080518082019091526002850290910180546001600160a01b031682526001908101548284015290835290920191016102db565b505050509050919050565b610336610453565b6103e86001600082825461034a91906105e6565b909155506103e89050600260006103696000546001600160a01b031690565b6001600160a01b03166001600160a01b03168152602001908152602001600020600082825461039891906105e6565b90915550506001546040519081527fada359bd50eab63c1b8ad7240911093ce3621ffb3acb56658278c38f7c4ad7fb9060200160405180910390a1565b6103dd610453565b6001600160a01b0381166104475760405162461bcd60e51b815260206004820152602660248201527f4f776e61626c653a206e6577206f776e657220697320746865207a65726f206160448201526564647265737360d01b60648201526084015b60405180910390fd5b610450816104ad565b50565b6000546001600160a01b031633146101995760405162461bcd60e51b815260206004820181905260248201527f4f776e61626c653a2063616c6c6572206973206e6f7420746865206f776e6572604482015260640161043e565b600080546001600160a01b038381166001600160a01b0319831681178455604051919092169283917f8be0079c531659141344cd1fd0a4f28419497f9722a3daafe3b4186f6b6457e09190a35050565b80356001600160a01b038116811461051457600080fd5b919050565b60006020828403121561052b57600080fd5b610534826104fd565b9392505050565b6000806040838503121561054e57600080fd5b610557836104fd565b946020939093013593505050565b602080825282518282018190526000919060409081850190868401855b828110156105b057815180516001600160a01b03168552860151868501529284019290850190600101610582565b5091979650505050505050565b634e487b7160e01b600052601160045260246000fd5b8181038181111561029d5761029d6105bd565b8082018082111561029d5761029d6105bd56fea264697066735822122019b508479264fdff608387497a5a1e52de4b7022b8c9d24ac352c914c08ed56e64736f6c63430008110033",
    "linkReferences": {}
  },
  "methodIdentifiers": {
    "_owner()": "b2bdfa7b",
    "balances(address)": "27e235e3",
    "getPaymentsForUser(address)": "cfc94e54",
    "getTotalSupply()": "c4e41b22",
    "increaseTotalSupply()": "de0f2be1",
    "owner()": "8da5cb5b",
    "renounceOwnership()": "715018a6",
    "totalSupply()": "18160ddd",
    "transfer(address,uint256)": "a9059cbb",
    "transferOwnership(address)": "f2fde38b"
  },
  "id": 11
}