{
  "_format": "hh-sol-artifact-1",
  "contractName": "VolcanoNFT",
  "sourceName": "contracts/VolcanoNFT.sol",
  "abi": [
    {
      "inputs": [],
      "stateMutability": "nonpayable",
      "type": "constructor"
    },
    {
      "anonymous": false,
      "inputs": [
        {
          "indexed": true,
          "internalType": "address",
          "name": "owner",
          "type": "address"
        },
        {
          "indexed": true,
          "internalType": "address",
          "name": "approved",
          "type": "address"
        },
        {
          "indexed": true,
          "internalType": "uint256",
          "name": "tokenId",
          "type": "uint256"
        }
      ],
      "name": "Approval",
      "type": "event"
    },
    {
      "anonymous": false,
      "inputs": [
        {
          "indexed": true,
          "internalType": "address",
          "name": "owner",
          "type": "address"
        },
        {
          "indexed": true,
          "internalType": "address",
          "name": "operator",
          "type": "address"
        },
        {
          "indexed": false,
          "internalType": "bool",
          "name": "approved",
          "type": "bool"
        }
      ],
      "name": "ApprovalForAll",
      "type": "event"
    },
    {
      "anonymous": false,
      "inputs": [
        {
          "indexed": true,
          "internalType": "address",
          "name": "previousOwner",
          "type": "address"
        },
        {
          "indexed": true,
          "internalType": "address",
          "name": "newOwner",
          "type": "address"
        }
      ],
      "name": "OwnershipTransferred",
      "type": "event"
    },
    {
      "anonymous": false,
      "inputs": [
        {
          "indexed": true,
          "internalType": "address",
          "name": "from",
          "type": "address"
        },
        {
          "indexed": true,
          "internalType": "address",
          "name": "to",
          "type": "address"
        },
        {
          "indexed": true,
          "internalType": "uint256",
          "name": "tokenId",
          "type": "uint256"
        }
      ],
      "name": "Transfer",
      "type": "event"
    },
    {
      "inputs": [],
      "name": "MAX_SUPPLY",
      "outputs": [
        {
          "internalType": "uint256",
          "name": "",
          "type": "uint256"
        }
      ],
      "stateMutability": "view",
      "type": "function"
    },
    {
      "inputs": [
        {
          "internalType": "address",
          "name": "to",
          "type": "address"
        },
        {
          "internalType": "uint256",
          "name": "tokenId",
          "type": "uint256"
        }
      ],
      "name": "approve",
      "outputs": [],
      "stateMutability": "nonpayable",
      "type": "function"
    },
    {
      "inputs": [
        {
          "internalType": "address",
          "name": "owner",
          "type": "address"
        }
      ],
      "name": "balanceOf",
      "outputs": [
        {
          "internalType": "uint256",
          "name": "",
          "type": "uint256"
        }
      ],
      "stateMutability": "view",
      "type": "function"
    },
    {
      "inputs": [],
      "name": "baseURI",
      "outputs": [
        {
          "internalType": "string",
          "name": "",
          "type": "string"
        }
      ],
      "stateMutability": "view",
      "type": "function"
    },
    {
      "inputs": [
        {
          "internalType": "uint256",
          "name": "tokenId",
          "type": "uint256"
        }
      ],
      "name": "getApproved",
      "outputs": [
        {
          "internalType": "address",
          "name": "",
          "type": "address"
        }
      ],
      "stateMutability": "view",
      "type": "function"
    },
    {
      "inputs": [
        {
          "internalType": "address",
          "name": "owner",
          "type": "address"
        },
        {
          "internalType": "address",
          "name": "operator",
          "type": "address"
        }
      ],
      "name": "isApprovedForAll",
      "outputs": [
        {
          "internalType": "bool",
          "name": "",
          "type": "bool"
        }
      ],
      "stateMutability": "view",
      "type": "function"
    },
    {
      "inputs": [
        {
          "internalType": "address",
          "name": "to",
          "type": "address"
        }
      ],
      "name": "mint",
      "outputs": [],
      "stateMutability": "nonpayable",
      "type": "function"
    },
    {
      "inputs": [],
      "name": "name",
      "outputs": [
        {
          "internalType": "string",
          "name": "",
          "type": "string"
        }
      ],
      "stateMutability": "view",
      "type": "function"
    },
    {
      "inputs": [],
      "name": "owner",
      "outputs": [
        {
          "internalType": "address",
          "name": "",
          "type": "address"
        }
      ],
      "stateMutability": "view",
      "type": "function"
    },
    {
      "inputs": [
        {
          "internalType": "uint256",
          "name": "tokenId",
          "type": "uint256"
        }
      ],
      "name": "ownerOf",
      "outputs": [
        {
          "internalType": "address",
          "name": "",
          "type": "address"
        }
      ],
      "stateMutability": "view",
      "type": "function"
    },
    {
      "inputs": [],
      "name": "renounceOwnership",
      "outputs": [],
      "stateMutability": "nonpayable",
      "type": "function"
    },
    {
      "inputs": [
        {
          "internalType": "address",
          "name": "from",
          "type": "address"
        },
        {
          "internalType": "address",
          "name": "to",
          "type": "address"
        },
        {
          "internalType": "uint256",
          "name": "tokenId",
          "type": "uint256"
        }
      ],
      "name": "safeTransferFrom",
      "outputs": [],
      "stateMutability": "nonpayable",
      "type": "function"
    },
    {
      "inputs": [
        {
          "internalType": "address",
          "name": "from",
          "type": "address"
        },
        {
          "internalType": "address",
          "name": "to",
          "type": "address"
        },
        {
          "internalType": "uint256",
          "name": "tokenId",
          "type": "uint256"
        },
        {
          "internalType": "bytes",
          "name": "data",
          "type": "bytes"
        }
      ],
      "name": "safeTransferFrom",
      "outputs": [],
      "stateMutability": "nonpayable",
      "type": "function"
    },
    {
      "inputs": [
        {
          "internalType": "address",
          "name": "operator",
          "type": "address"
        },
        {
          "internalType": "bool",
          "name": "approved",
          "type": "bool"
        }
      ],
      "name": "setApprovalForAll",
      "outputs": [],
      "stateMutability": "nonpayable",
      "type": "function"
    },
    {
      "inputs": [
        {
          "internalType": "string",
          "name": "_baseURI",
          "type": "string"
        }
      ],
      "name": "setBaseURI",
      "outputs": [],
      "stateMutability": "nonpayable",
      "type": "function"
    },
    {
      "inputs": [
        {
          "internalType": "bytes4",
          "name": "interfaceId",
          "type": "bytes4"
        }
      ],
      "name": "supportsInterface",
      "outputs": [
        {
          "internalType": "bool",
          "name": "",
          "type": "bool"
        }
      ],
      "stateMutability": "view",
      "type": "function"
    },
    {
      "inputs": [],
      "name": "symbol",
      "outputs": [
        {
          "internalType": "string",
          "name": "",
          "type": "string"
        }
      ],
      "stateMutability": "view",
      "type": "function"
    },
    {
      "inputs": [
        {
          "internalType": "uint256",
          "name": "index",
          "type": "uint256"
        }
      ],
      "name": "tokenByIndex",
      "outputs": [
        {
          "internalType": "uint256",
          "name": "",
          "type": "uint256"
        }
      ],
      "stateMutability": "view",
      "type": "function"
    },
    {
      "inputs": [
        {
          "internalType": "address",
          "name": "owner",
          "type": "address"
        },
        {
          "internalType": "uint256",
          "name": "index",
          "type": "uint256"
        }
      ],
      "name": "tokenOfOwnerByIndex",
      "outputs": [
        {
          "internalType": "uint256",
          "name": "",
          "type": "uint256"
        }
      ],
      "stateMutability": "view",
      "type": "function"
    },
    {
      "inputs": [
        {
          "internalType": "uint256",
          "name": "tokenId",
          "type": "uint256"
        }
      ],
      "name": "tokenURI",
      "outputs": [
        {
          "internalType": "string",
          "name": "",
          "type": "string"
        }
      ],
      "stateMutability": "view",
      "type": "function"
    },
    {
      "inputs": [],
      "name": "totalSupply",
      "outputs": [
        {
          "internalType": "uint256",
          "name": "",
          "type": "uint256"
        }
      ],
      "stateMutability": "view",
      "type": "function"
    },
    {
      "inputs": [
        {
          "internalType": "address",
          "name": "from",
          "type": "address"
        },
        {
          "internalType": "address",
          "name": "to",
          "type": "address"
        },
        {
          "internalType": "uint256",
          "name": "tokenId",
          "type": "uint256"
        }
      ],
      "name": "transferFrom",
      "outputs": [],
      "stateMutability": "nonpayable",
      "type": "function"
    },
    {
      "inputs": [
        {
          "internalType": "address",
          "name": "newOwner",
          "type": "address"
        }
      ],
      "name": "transferOwnership",
      "outputs": [],
      "stateMutability": "nonpayable",
      "type": "function"
    }
  ],
  "bytecode": "0x60a060405260646080908152503480156200001957600080fd5b506040518060400160405280600b81526020017f566f6c63616e6f204e46540000000000000000000000000000000000000000008152506040518060400160405280600781526020017f564f4c43414e4f0000000000000000000000000000000000000000000000000081525081600090816200009791906200041a565b508060019081620000a991906200041a565b505050620000cc620000c0620000d260201b60201c565b620000da60201b60201c565b62000501565b600033905090565b6000600a60009054906101000a900473ffffffffffffffffffffffffffffffffffffffff16905081600a60006101000a81548173ffffffffffffffffffffffffffffffffffffffff021916908373ffffffffffffffffffffffffffffffffffffffff1602179055508173ffffffffffffffffffffffffffffffffffffffff168173ffffffffffffffffffffffffffffffffffffffff167f8be0079c531659141344cd1fd0a4f28419497f9722a3daafe3b4186f6b6457e060405160405180910390a35050565b600081519050919050565b7f4e487b7100000000000000000000000000000000000000000000000000000000600052604160045260246000fd5b7f4e487b7100000000000000000000000000000000000000000000000000000000600052602260045260246000fd5b600060028204905060018216806200022257607f821691505b602082108103620002385762000237620001da565b5b50919050565b60008190508160005260206000209050919050565b60006020601f8301049050919050565b600082821b905092915050565b600060088302620002a27fffffffffffffffffffffffffffffffffffffffffffffffffffffffffffffffff8262000263565b620002ae868362000263565b95508019841693508086168417925050509392505050565b6000819050919050565b6000819050919050565b6000620002fb620002f5620002ef84620002c6565b620002d0565b620002c6565b9050919050565b6000819050919050565b6200031783620002da565b6200032f620003268262000302565b84845462000270565b825550505050565b600090565b6200034662000337565b620003538184846200030c565b505050565b5b818110156200037b576200036f6000826200033c565b60018101905062000359565b5050565b601f821115620003ca5762000394816200023e565b6200039f8462000253565b81016020851015620003af578190505b620003c7620003be8562000253565b83018262000358565b50505b505050565b600082821c905092915050565b6000620003ef60001984600802620003cf565b1980831691505092915050565b60006200040a8383620003dc565b9150826002028217905092915050565b6200042582620001a0565b67ffffffffffffffff811115620004415762000440620001ab565b5b6200044d825462000209565b6200045a8282856200037f565b600060209050601f8311600181146200049257600084156200047d578287015190505b620004898582620003fc565b865550620004f9565b601f198416620004a2866200023e565b60005b82811015620004cc57848901518255600182019150602085019450602081019050620004a5565b86831015620004ec5784890151620004e8601f891682620003dc565b8355505b6001600288020188555050505b505050505050565b60805161369762000524600039600081816107ed015261097a01526136976000f3fe608060405234801561001057600080fd5b506004361061014d5760003560e01c80636352211e116100c357806395d89b411161007c57806395d89b411461039e578063a22cb465146103bc578063b88d4fde146103d8578063c87b56dd146103f4578063e985e9c514610424578063f2fde38b146104545761014d565b80636352211e146102dc5780636a6278421461030c5780636c0360eb1461032857806370a0823114610346578063715018a6146103765780638da5cb5b146103805761014d565b806323b872dd1161011557806323b872dd1461020a5780632f745c591461022657806332cb6b0c1461025657806342842e0e146102745780634f6ccce71461029057806355f804b3146102c05761014d565b806301ffc9a71461015257806306fdde0314610182578063081812fc146101a0578063095ea7b3146101d057806318160ddd146101ec575b600080fd5b61016c600480360381019061016791906120e9565b610470565b6040516101799190612131565b60405180910390f35b61018a6104ea565b60405161019791906121dc565b60405180910390f35b6101ba60048036038101906101b59190612234565b61057c565b6040516101c791906122a2565b60405180910390f35b6101ea60048036038101906101e591906122e9565b6105c2565b005b6101f46106d9565b6040516102019190612338565b60405180910390f35b610224600480360381019061021f9190612353565b6106e6565b005b610240600480360381019061023b91906122e9565b610746565b60405161024d9190612338565b60405180910390f35b61025e6107eb565b60405161026b9190612338565b60405180910390f35b61028e60048036038101906102899190612353565b61080f565b005b6102aa60048036038101906102a59190612234565b61082f565b6040516102b79190612338565b60405180910390f35b6102da60048036038101906102d591906124db565b6108a0565b005b6102f660048036038101906102f19190612234565b6108bb565b60405161030391906122a2565b60405180910390f35b61032660048036038101906103219190612524565b61096c565b005b6103306109e8565b60405161033d91906121dc565b60405180910390f35b610360600480360381019061035b9190612524565b610a76565b60405161036d9190612338565b60405180910390f35b61037e610b2d565b005b610388610b41565b60405161039591906122a2565b60405180910390f35b6103a6610b6b565b6040516103b391906121dc565b60405180910390f35b6103d660048036038101906103d1919061257d565b610bfd565b005b6103f260048036038101906103ed919061265e565b610c13565b005b61040e60048036038101906104099190612234565b610c75565b60405161041b91906121dc565b60405180910390f35b61043e600480360381019061043991906126e1565b610d1d565b60405161044b9190612131565b60405180910390f35b61046e60048036038101906104699190612524565b610db1565b005b60007f780e9d63000000000000000000000000000000000000000000000000000000007bffffffffffffffffffffffffffffffffffffffffffffffffffffffff1916827bffffffffffffffffffffffffffffffffffffffffffffffffffffffff191614806104e357506104e282610e34565b5b9050919050565b6060600080546104f990612750565b80601f016020809104026020016040519081016040528092919081815260200182805461052590612750565b80156105725780601f1061054757610100808354040283529160200191610572565b820191906000526020600020905b81548152906001019060200180831161055557829003601f168201915b5050505050905090565b600061058782610f16565b6004600083815260200190815260200160002060009054906101000a900473ffffffffffffffffffffffffffffffffffffffff169050919050565b60006105cd826108bb565b90508073ffffffffffffffffffffffffffffffffffffffff168373ffffffffffffffffffffffffffffffffffffffff160361063d576040517f08c379a0000000000000000000000000000000000000000000000000000000008152600401610634906127f3565b60405180910390fd5b8073ffffffffffffffffffffffffffffffffffffffff1661065c610f61565b73ffffffffffffffffffffffffffffffffffffffff16148061068b575061068a81610685610f61565b610d1d565b5b6106ca576040517f08c379a00000000000000000000000000000000000000000000000000000000081526004016106c190612885565b60405180910390fd5b6106d48383610f69565b505050565b6000600880549050905090565b6106f76106f1610f61565b82611022565b610736576040517f08c379a000000000000000000000000000000000000000000000000000000000815260040161072d90612917565b60405180910390fd5b6107418383836110b7565b505050565b600061075183610a76565b8210610792576040517f08c379a0000000000000000000000000000000000000000000000000000000008152600401610789906129a9565b60405180910390fd5b600660008473ffffffffffffffffffffffffffffffffffffffff1673ffffffffffffffffffffffffffffffffffffffff168152602001908152602001600020600083815260200190815260200160002054905092915050565b7f000000000000000000000000000000000000000000000000000000000000000081565b61082a83838360405180602001604052806000815250610c13565b505050565b60006108396106d9565b821061087a576040517f08c379a000000000000000000000000000000000000000000000000000000000815260040161087190612a3b565b60405180910390fd5b6008828154811061088e5761088d612a5b565b5b90600052602060002001549050919050565b6108a861131d565b80600b90816108b79190612c36565b5050565b6000806002600084815260200190815260200160002060009054906101000a900473ffffffffffffffffffffffffffffffffffffffff169050600073ffffffffffffffffffffffffffffffffffffffff168173ffffffffffffffffffffffffffffffffffffffff1603610963576040517f08c379a000000000000000000000000000000000000000000000000000000000815260040161095a90612d54565b60405180910390fd5b80915050919050565b60006109766106d9565b90507f000000000000000000000000000000000000000000000000000000000000000081106109da576040517f08c379a00000000000000000000000000000000000000000000000000000000081526004016109d190612dc0565b60405180910390fd5b6109e4828261139b565b5050565b600b80546109f590612750565b80601f0160208091040260200160405190810160405280929190818152602001828054610a2190612750565b8015610a6e5780601f10610a4357610100808354040283529160200191610a6e565b820191906000526020600020905b815481529060010190602001808311610a5157829003601f168201915b505050505081565b60008073ffffffffffffffffffffffffffffffffffffffff168273ffffffffffffffffffffffffffffffffffffffff1603610ae6576040517f08c379a0000000000000000000000000000000000000000000000000000000008152600401610add90612e52565b60405180910390fd5b600360008373ffffffffffffffffffffffffffffffffffffffff1673ffffffffffffffffffffffffffffffffffffffff168152602001908152602001600020549050919050565b610b3561131d565b610b3f60006113b9565b565b6000600a60009054906101000a900473ffffffffffffffffffffffffffffffffffffffff16905090565b606060018054610b7a90612750565b80601f0160208091040260200160405190810160405280929190818152602001828054610ba690612750565b8015610bf35780601f10610bc857610100808354040283529160200191610bf3565b820191906000526020600020905b815481529060010190602001808311610bd657829003601f168201915b5050505050905090565b610c0f610c08610f61565b838361147f565b5050565b610c24610c1e610f61565b83611022565b610c63576040517f08c379a0000000000000000000000000000000000000000000000000000000008152600401610c5a90612917565b60405180910390fd5b610c6f848484846115eb565b50505050565b6060610c8082611647565b610cbf576040517f08c379a0000000000000000000000000000000000000000000000000000000008152600401610cb690612ee4565b60405180910390fd5b6000600b8054610cce90612750565b905011610cea5760405180602001604052806000815250610d16565b600b610cf5836116b3565b604051602001610d06929190612fc3565b6040516020818303038152906040525b9050919050565b6000600560008473ffffffffffffffffffffffffffffffffffffffff1673ffffffffffffffffffffffffffffffffffffffff16815260200190815260200160002060008373ffffffffffffffffffffffffffffffffffffffff1673ffffffffffffffffffffffffffffffffffffffff16815260200190815260200160002060009054906101000a900460ff16905092915050565b610db961131d565b600073ffffffffffffffffffffffffffffffffffffffff168173ffffffffffffffffffffffffffffffffffffffff1603610e28576040517f08c379a0000000000000000000000000000000000000000000000000000000008152600401610e1f90613059565b60405180910390fd5b610e31816113b9565b50565b60007f80ac58cd000000000000000000000000000000000000000000000000000000007bffffffffffffffffffffffffffffffffffffffffffffffffffffffff1916827bffffffffffffffffffffffffffffffffffffffffffffffffffffffff19161480610eff57507f5b5e139f000000000000000000000000000000000000000000000000000000007bffffffffffffffffffffffffffffffffffffffffffffffffffffffff1916827bffffffffffffffffffffffffffffffffffffffffffffffffffffffff1916145b80610f0f5750610f0e82611813565b5b9050919050565b610f1f81611647565b610f5e576040517f08c379a0000000000000000000000000000000000000000000000000000000008152600401610f5590612d54565b60405180910390fd5b50565b600033905090565b816004600083815260200190815260200160002060006101000a81548173ffffffffffffffffffffffffffffffffffffffff021916908373ffffffffffffffffffffffffffffffffffffffff160217905550808273ffffffffffffffffffffffffffffffffffffffff16610fdc836108bb565b73ffffffffffffffffffffffffffffffffffffffff167f8c5be1e5ebec7d5bd14f71427d1e84f3dd0314c0f7b2291e5b200ac8c7c3b92560405160405180910390a45050565b60008061102e836108bb565b90508073ffffffffffffffffffffffffffffffffffffffff168473ffffffffffffffffffffffffffffffffffffffff161480611070575061106f8185610d1d565b5b806110ae57508373ffffffffffffffffffffffffffffffffffffffff166110968461057c565b73ffffffffffffffffffffffffffffffffffffffff16145b91505092915050565b8273ffffffffffffffffffffffffffffffffffffffff166110d7826108bb565b73ffffffffffffffffffffffffffffffffffffffff161461112d576040517f08c379a0000000000000000000000000000000000000000000000000000000008152600401611124906130eb565b60405180910390fd5b600073ffffffffffffffffffffffffffffffffffffffff168273ffffffffffffffffffffffffffffffffffffffff160361119c576040517f08c379a00000000000000000000000000000000000000000000000000000000081526004016111939061317d565b60405180910390fd5b6111a783838361187d565b6111b2600082610f69565b6001600360008573ffffffffffffffffffffffffffffffffffffffff1673ffffffffffffffffffffffffffffffffffffffff168152602001908152602001600020600082825461120291906131cc565b925050819055506001600360008473ffffffffffffffffffffffffffffffffffffffff1673ffffffffffffffffffffffffffffffffffffffff16815260200190815260200160002060008282546112599190613200565b92505081905550816002600083815260200190815260200160002060006101000a81548173ffffffffffffffffffffffffffffffffffffffff021916908373ffffffffffffffffffffffffffffffffffffffff160217905550808273ffffffffffffffffffffffffffffffffffffffff168473ffffffffffffffffffffffffffffffffffffffff167fddf252ad1be2c89b69c2b068fc378daa952ba7f163c4a11628f55a4df523b3ef60405160405180910390a461131883838361198f565b505050565b611325610f61565b73ffffffffffffffffffffffffffffffffffffffff16611343610b41565b73ffffffffffffffffffffffffffffffffffffffff1614611399576040517f08c379a000000000000000000000000000000000000000000000000000000000815260040161139090613280565b60405180910390fd5b565b6113b5828260405180602001604052806000815250611994565b5050565b6000600a60009054906101000a900473ffffffffffffffffffffffffffffffffffffffff16905081600a60006101000a81548173ffffffffffffffffffffffffffffffffffffffff021916908373ffffffffffffffffffffffffffffffffffffffff1602179055508173ffffffffffffffffffffffffffffffffffffffff168173ffffffffffffffffffffffffffffffffffffffff167f8be0079c531659141344cd1fd0a4f28419497f9722a3daafe3b4186f6b6457e060405160405180910390a35050565b8173ffffffffffffffffffffffffffffffffffffffff168373ffffffffffffffffffffffffffffffffffffffff16036114ed576040517f08c379a00000000000000000000000000000000000000000000000000000000081526004016114e4906132ec565b60405180910390fd5b80600560008573ffffffffffffffffffffffffffffffffffffffff1673ffffffffffffffffffffffffffffffffffffffff16815260200190815260200160002060008473ffffffffffffffffffffffffffffffffffffffff1673ffffffffffffffffffffffffffffffffffffffff16815260200190815260200160002060006101000a81548160ff0219169083151502179055508173ffffffffffffffffffffffffffffffffffffffff168373ffffffffffffffffffffffffffffffffffffffff167f17307eab39ab6107e8899845ad3d59bd9653f200f220920489ca2b5937696c31836040516115de9190612131565b60405180910390a3505050565b6115f68484846110b7565b611602848484846119ef565b611641576040517f08c379a00000000000000000000000000000000000000000000000000000000081526004016116389061337e565b60405180910390fd5b50505050565b60008073ffffffffffffffffffffffffffffffffffffffff166002600084815260200190815260200160002060009054906101000a900473ffffffffffffffffffffffffffffffffffffffff1673ffffffffffffffffffffffffffffffffffffffff1614159050919050565b6060600082036116fa576040518060400160405280600181526020017f3000000000000000000000000000000000000000000000000000000000000000815250905061180e565b600082905060005b6000821461172c5780806117159061339e565b915050600a826117259190613415565b9150611702565b60008167ffffffffffffffff811115611748576117476123b0565b5b6040519080825280601f01601f19166020018201604052801561177a5781602001600182028036833780820191505090505b5090505b600085146118075760018261179391906131cc565b9150600a856117a29190613446565b60306117ae9190613200565b60f81b8183815181106117c4576117c3612a5b565b5b60200101907effffffffffffffffffffffffffffffffffffffffffffffffffffffffffffff1916908160001a905350600a856118009190613415565b945061177e565b8093505050505b919050565b60007f01ffc9a7000000000000000000000000000000000000000000000000000000007bffffffffffffffffffffffffffffffffffffffffffffffffffffffff1916827bffffffffffffffffffffffffffffffffffffffffffffffffffffffff1916149050919050565b611888838383611b76565b600073ffffffffffffffffffffffffffffffffffffffff168373ffffffffffffffffffffffffffffffffffffffff16036118ca576118c581611b7b565b611909565b8173ffffffffffffffffffffffffffffffffffffffff168373ffffffffffffffffffffffffffffffffffffffff1614611908576119078382611bc4565b5b5b600073ffffffffffffffffffffffffffffffffffffffff168273ffffffffffffffffffffffffffffffffffffffff160361194b5761194681611d31565b61198a565b8273ffffffffffffffffffffffffffffffffffffffff168273ffffffffffffffffffffffffffffffffffffffff1614611989576119888282611e02565b5b5b505050565b505050565b61199e8383611e81565b6119ab60008484846119ef565b6119ea576040517f08c379a00000000000000000000000000000000000000000000000000000000081526004016119e19061337e565b60405180910390fd5b505050565b6000611a108473ffffffffffffffffffffffffffffffffffffffff1661205a565b15611b69578373ffffffffffffffffffffffffffffffffffffffff1663150b7a02611a39610f61565b8786866040518563ffffffff1660e01b8152600401611a5b94939291906134cc565b6020604051808303816000875af1925050508015611a9757506040513d601f19601f82011682018060405250810190611a94919061352d565b60015b611b19573d8060008114611ac7576040519150601f19603f3d011682016040523d82523d6000602084013e611acc565b606091505b506000815103611b11576040517f08c379a0000000000000000000000000000000000000000000000000000000008152600401611b089061337e565b60405180910390fd5b805181602001fd5b63150b7a0260e01b7bffffffffffffffffffffffffffffffffffffffffffffffffffffffff1916817bffffffffffffffffffffffffffffffffffffffffffffffffffffffff191614915050611b6e565b600190505b949350505050565b505050565b6008805490506009600083815260200190815260200160002081905550600881908060018154018082558091505060019003906000526020600020016000909190919091505550565b60006001611bd184610a76565b611bdb91906131cc565b9050600060076000848152602001908152602001600020549050818114611cc0576000600660008673ffffffffffffffffffffffffffffffffffffffff1673ffffffffffffffffffffffffffffffffffffffff168152602001908152602001600020600084815260200190815260200160002054905080600660008773ffffffffffffffffffffffffffffffffffffffff1673ffffffffffffffffffffffffffffffffffffffff168152602001908152602001600020600084815260200190815260200160002081905550816007600083815260200190815260200160002081905550505b6007600084815260200190815260200160002060009055600660008573ffffffffffffffffffffffffffffffffffffffff1673ffffffffffffffffffffffffffffffffffffffff16815260200190815260200160002060008381526020019081526020016000206000905550505050565b60006001600880549050611d4591906131cc565b9050600060096000848152602001908152602001600020549050600060088381548110611d7557611d74612a5b565b5b906000526020600020015490508060088381548110611d9757611d96612a5b565b5b906000526020600020018190555081600960008381526020019081526020016000208190555060096000858152602001908152602001600020600090556008805480611de657611de561355a565b5b6001900381819060005260206000200160009055905550505050565b6000611e0d83610a76565b905081600660008573ffffffffffffffffffffffffffffffffffffffff1673ffffffffffffffffffffffffffffffffffffffff168152602001908152602001600020600083815260200190815260200160002081905550806007600084815260200190815260200160002081905550505050565b600073ffffffffffffffffffffffffffffffffffffffff168273ffffffffffffffffffffffffffffffffffffffff1603611ef0576040517f08c379a0000000000000000000000000000000000000000000000000000000008152600401611ee7906135d5565b60405180910390fd5b611ef981611647565b15611f39576040517f08c379a0000000000000000000000000000000000000000000000000000000008152600401611f3090613641565b60405180910390fd5b611f456000838361187d565b6001600360008473ffffffffffffffffffffffffffffffffffffffff1673ffffffffffffffffffffffffffffffffffffffff1681526020019081526020016000206000828254611f959190613200565b92505081905550816002600083815260200190815260200160002060006101000a81548173ffffffffffffffffffffffffffffffffffffffff021916908373ffffffffffffffffffffffffffffffffffffffff160217905550808273ffffffffffffffffffffffffffffffffffffffff16600073ffffffffffffffffffffffffffffffffffffffff167fddf252ad1be2c89b69c2b068fc378daa952ba7f163c4a11628f55a4df523b3ef60405160405180910390a46120566000838361198f565b5050565b6000808273ffffffffffffffffffffffffffffffffffffffff163b119050919050565b6000604051905090565b600080fd5b600080fd5b60007fffffffff0000000000000000000000000000000000000000000000000000000082169050919050565b6120c681612091565b81146120d157600080fd5b50565b6000813590506120e3816120bd565b92915050565b6000602082840312156120ff576120fe612087565b5b600061210d848285016120d4565b91505092915050565b60008115159050919050565b61212b81612116565b82525050565b60006020820190506121466000830184612122565b92915050565b600081519050919050565b600082825260208201905092915050565b60005b8381101561218657808201518184015260208101905061216b565b60008484015250505050565b6000601f19601f8301169050919050565b60006121ae8261214c565b6121b88185612157565b93506121c8818560208601612168565b6121d181612192565b840191505092915050565b600060208201905081810360008301526121f681846121a3565b905092915050565b6000819050919050565b612211816121fe565b811461221c57600080fd5b50565b60008135905061222e81612208565b92915050565b60006020828403121561224a57612249612087565b5b60006122588482850161221f565b91505092915050565b600073ffffffffffffffffffffffffffffffffffffffff82169050919050565b600061228c82612261565b9050919050565b61229c81612281565b82525050565b60006020820190506122b76000830184612293565b92915050565b6122c681612281565b81146122d157600080fd5b50565b6000813590506122e3816122bd565b92915050565b60008060408385031215612300576122ff612087565b5b600061230e858286016122d4565b925050602061231f8582860161221f565b9150509250929050565b612332816121fe565b82525050565b600060208201905061234d6000830184612329565b92915050565b60008060006060848603121561236c5761236b612087565b5b600061237a868287016122d4565b935050602061238b868287016122d4565b925050604061239c8682870161221f565b9150509250925092565b600080fd5b600080fd5b7f4e487b7100000000000000000000000000000000000000000000000000000000600052604160045260246000fd5b6123e882612192565b810181811067ffffffffffffffff82111715612407576124066123b0565b5b80604052505050565b600061241a61207d565b905061242682826123df565b919050565b600067ffffffffffffffff821115612446576124456123b0565b5b61244f82612192565b9050602081019050919050565b82818337600083830152505050565b600061247e6124798461242b565b612410565b90508281526020810184848401111561249a576124996123ab565b5b6124a584828561245c565b509392505050565b600082601f8301126124c2576124c16123a6565b5b81356124d284826020860161246b565b91505092915050565b6000602082840312156124f1576124f0612087565b5b600082013567ffffffffffffffff81111561250f5761250e61208c565b5b61251b848285016124ad565b91505092915050565b60006020828403121561253a57612539612087565b5b6000612548848285016122d4565b91505092915050565b61255a81612116565b811461256557600080fd5b50565b60008135905061257781612551565b92915050565b6000806040838503121561259457612593612087565b5b60006125a2858286016122d4565b92505060206125b385828601612568565b9150509250929050565b600067ffffffffffffffff8211156125d8576125d76123b0565b5b6125e182612192565b9050602081019050919050565b60006126016125fc846125bd565b612410565b90508281526020810184848401111561261d5761261c6123ab565b5b61262884828561245c565b509392505050565b600082601f830112612645576126446123a6565b5b81356126558482602086016125ee565b91505092915050565b6000806000806080858703121561267857612677612087565b5b6000612686878288016122d4565b9450506020612697878288016122d4565b93505060406126a88782880161221f565b925050606085013567ffffffffffffffff8111156126c9576126c861208c565b5b6126d587828801612630565b91505092959194509250565b600080604083850312156126f8576126f7612087565b5b6000612706858286016122d4565b9250506020612717858286016122d4565b9150509250929050565b7f4e487b7100000000000000000000000000000000000000000000000000000000600052602260045260246000fd5b6000600282049050600182168061276857607f821691505b60208210810361277b5761277a612721565b5b50919050565b7f4552433732313a20617070726f76616c20746f2063757272656e74206f776e6560008201527f7200000000000000000000000000000000000000000000000000000000000000602082015250565b60006127dd602183612157565b91506127e882612781565b604082019050919050565b6000602082019050818103600083015261280c816127d0565b9050919050565b7f4552433732313a20617070726f76652063616c6c6572206973206e6f7420746f60008201527f6b656e206f776e6572206e6f7220617070726f76656420666f7220616c6c0000602082015250565b600061286f603e83612157565b915061287a82612813565b604082019050919050565b6000602082019050818103600083015261289e81612862565b9050919050565b7f4552433732313a2063616c6c6572206973206e6f7420746f6b656e206f776e6560008201527f72206e6f7220617070726f766564000000000000000000000000000000000000602082015250565b6000612901602e83612157565b915061290c826128a5565b604082019050919050565b60006020820190508181036000830152612930816128f4565b9050919050565b7f455243373231456e756d657261626c653a206f776e657220696e646578206f7560008201527f74206f6620626f756e6473000000000000000000000000000000000000000000602082015250565b6000612993602b83612157565b915061299e82612937565b604082019050919050565b600060208201905081810360008301526129c281612986565b9050919050565b7f455243373231456e756d657261626c653a20676c6f62616c20696e646578206f60008201527f7574206f6620626f756e64730000000000000000000000000000000000000000602082015250565b6000612a25602c83612157565b9150612a30826129c9565b604082019050919050565b60006020820190508181036000830152612a5481612a18565b9050919050565b7f4e487b7100000000000000000000000000000000000000000000000000000000600052603260045260246000fd5b60008190508160005260206000209050919050565b60006020601f8301049050919050565b600082821b905092915050565b600060088302612aec7fffffffffffffffffffffffffffffffffffffffffffffffffffffffffffffffff82612aaf565b612af68683612aaf565b95508019841693508086168417925050509392505050565b6000819050919050565b6000612b33612b2e612b29846121fe565b612b0e565b6121fe565b9050919050565b6000819050919050565b612b4d83612b18565b612b61612b5982612b3a565b848454612abc565b825550505050565b600090565b612b76612b69565b612b81818484612b44565b505050565b5b81811015612ba557612b9a600082612b6e565b600181019050612b87565b5050565b601f821115612bea57612bbb81612a8a565b612bc484612a9f565b81016020851015612bd3578190505b612be7612bdf85612a9f565b830182612b86565b50505b505050565b600082821c905092915050565b6000612c0d60001984600802612bef565b1980831691505092915050565b6000612c268383612bfc565b9150826002028217905092915050565b612c3f8261214c565b67ffffffffffffffff811115612c5857612c576123b0565b5b612c628254612750565b612c6d828285612ba9565b600060209050601f831160018114612ca05760008415612c8e578287015190505b612c988582612c1a565b865550612d00565b601f198416612cae86612a8a565b60005b82811015612cd657848901518255600182019150602085019450602081019050612cb1565b86831015612cf35784890151612cef601f891682612bfc565b8355505b6001600288020188555050505b505050505050565b7f4552433732313a20696e76616c696420746f6b656e2049440000000000000000600082015250565b6000612d3e601883612157565b9150612d4982612d08565b602082019050919050565b60006020820190508181036000830152612d6d81612d31565b9050919050565b7f4d617820737570706c7920726561636865640000000000000000000000000000600082015250565b6000612daa601283612157565b9150612db582612d74565b602082019050919050565b60006020820190508181036000830152612dd981612d9d565b9050919050565b7f4552433732313a2061646472657373207a65726f206973206e6f74206120766160008201527f6c6964206f776e65720000000000000000000000000000000000000000000000602082015250565b6000612e3c602983612157565b9150612e4782612de0565b604082019050919050565b60006020820190508181036000830152612e6b81612e2f565b9050919050565b7f4552433732314d657461646174613a2055524920717565727920666f72206e6f60008201527f6e6578697374656e7420746f6b656e0000000000000000000000000000000000602082015250565b6000612ece602f83612157565b9150612ed982612e72565b604082019050919050565b60006020820190508181036000830152612efd81612ec1565b9050919050565b600081905092915050565b60008154612f1c81612750565b612f268186612f04565b94506001821660008114612f415760018114612f5657612f89565b60ff1983168652811515820286019350612f89565b612f5f85612a8a565b60005b83811015612f8157815481890152600182019150602081019050612f62565b838801955050505b50505092915050565b6000612f9d8261214c565b612fa78185612f04565b9350612fb7818560208601612168565b80840191505092915050565b6000612fcf8285612f0f565b9150612fdb8284612f92565b91508190509392505050565b7f4f776e61626c653a206e6577206f776e657220697320746865207a65726f206160008201527f6464726573730000000000000000000000000000000000000000000000000000602082015250565b6000613043602683612157565b915061304e82612fe7565b604082019050919050565b6000602082019050818103600083015261307281613036565b9050919050565b7f4552433732313a207472616e736665722066726f6d20696e636f72726563742060008201527f6f776e6572000000000000000000000000000000000000000000000000000000602082015250565b60006130d5602583612157565b91506130e082613079565b604082019050919050565b60006020820190508181036000830152613104816130c8565b9050919050565b7f4552433732313a207472616e7366657220746f20746865207a65726f2061646460008201527f7265737300000000000000000000000000000000000000000000000000000000602082015250565b6000613167602483612157565b91506131728261310b565b604082019050919050565b600060208201905081810360008301526131968161315a565b9050919050565b7f4e487b7100000000000000000000000000000000000000000000000000000000600052601160045260246000fd5b60006131d7826121fe565b91506131e2836121fe565b92508282039050818111156131fa576131f961319d565b5b92915050565b600061320b826121fe565b9150613216836121fe565b925082820190508082111561322e5761322d61319d565b5b92915050565b7f4f776e61626c653a2063616c6c6572206973206e6f7420746865206f776e6572600082015250565b600061326a602083612157565b915061327582613234565b602082019050919050565b600060208201905081810360008301526132998161325d565b9050919050565b7f4552433732313a20617070726f766520746f2063616c6c657200000000000000600082015250565b60006132d6601983612157565b91506132e1826132a0565b602082019050919050565b60006020820190508181036000830152613305816132c9565b9050919050565b7f4552433732313a207472616e7366657220746f206e6f6e20455243373231526560008201527f63656976657220696d706c656d656e7465720000000000000000000000000000602082015250565b6000613368603283612157565b91506133738261330c565b604082019050919050565b600060208201905081810360008301526133978161335b565b9050919050565b60006133a9826121fe565b91507fffffffffffffffffffffffffffffffffffffffffffffffffffffffffffffffff82036133db576133da61319d565b5b600182019050919050565b7f4e487b7100000000000000000000000000000000000000000000000000000000600052601260045260246000fd5b6000613420826121fe565b915061342b836121fe565b92508261343b5761343a6133e6565b5b828204905092915050565b6000613451826121fe565b915061345c836121fe565b92508261346c5761346b6133e6565b5b828206905092915050565b600081519050919050565b600082825260208201905092915050565b600061349e82613477565b6134a88185613482565b93506134b8818560208601612168565b6134c181612192565b840191505092915050565b60006080820190506134e16000830187612293565b6134ee6020830186612293565b6134fb6040830185612329565b818103606083015261350d8184613493565b905095945050505050565b600081519050613527816120bd565b92915050565b60006020828403121561354357613542612087565b5b600061355184828501613518565b91505092915050565b7f4e487b7100000000000000000000000000000000000000000000000000000000600052603160045260246000fd5b7f4552433732313a206d696e7420746f20746865207a65726f2061646472657373600082015250565b60006135bf602083612157565b91506135ca82613589565b602082019050919050565b600060208201905081810360008301526135ee816135b2565b9050919050565b7f4552433732313a20746f6b656e20616c7265616479206d696e74656400000000600082015250565b600061362b601c83612157565b9150613636826135f5565b602082019050919050565b6000602082019050818103600083015261365a8161361e565b905091905056fea26469706673582212205ef15fec45df9d8c4f54a09a9cdd35bf310673ddd93760d9ea8a16d623dc01c064736f6c63430008110033",
  "linkReferences": {},
  "deployedLinkReferences": {}
}